{
  "_format": "hh-sol-artifact-1",
  "contractName": "WizardsGame",
  "sourceName": "contracts/WizardsGame.sol",
  "abi": [
    {
      "inputs": [
        {
          "internalType": "string[]",
          "name": "characterNames",
          "type": "string[]"
        },
        {
          "internalType": "string[]",
          "name": "characterImageURIs",
          "type": "string[]"
        },
        {
          "internalType": "uint256[]",
          "name": "characterHp",
          "type": "uint256[]"
        },
        {
          "internalType": "uint256[]",
          "name": "characterMana",
          "type": "uint256[]"
        },
        {
          "internalType": "uint256[]",
          "name": "characterSpellDmg",
          "type": "uint256[]"
        },
        {
          "internalType": "string",
          "name": "bossName",
          "type": "string"
        },
        {
          "internalType": "string",
          "name": "bossImageURI",
          "type": "string"
        },
        {
          "internalType": "uint256",
          "name": "bossHp",
          "type": "uint256"
        },
        {
          "internalType": "uint256",
          "name": "bossAttackDamage",
          "type": "uint256"
        }
      ],
      "stateMutability": "nonpayable",
      "type": "constructor"
    },
    {
      "anonymous": false,
      "inputs": [
        {
          "indexed": true,
          "internalType": "address",
          "name": "owner",
          "type": "address"
        },
        {
          "indexed": true,
          "internalType": "address",
          "name": "approved",
          "type": "address"
        },
        {
          "indexed": true,
          "internalType": "uint256",
          "name": "tokenId",
          "type": "uint256"
        }
      ],
      "name": "Approval",
      "type": "event"
    },
    {
      "anonymous": false,
      "inputs": [
        {
          "indexed": true,
          "internalType": "address",
          "name": "owner",
          "type": "address"
        },
        {
          "indexed": true,
          "internalType": "address",
          "name": "operator",
          "type": "address"
        },
        {
          "indexed": false,
          "internalType": "bool",
          "name": "approved",
          "type": "bool"
        }
      ],
      "name": "ApprovalForAll",
      "type": "event"
    },
    {
      "anonymous": false,
      "inputs": [
        {
          "indexed": false,
          "internalType": "uint256",
          "name": "newBossHp",
          "type": "uint256"
        },
        {
          "indexed": false,
          "internalType": "uint256",
          "name": "newPlayerHp",
          "type": "uint256"
        }
      ],
      "name": "AttackComplete",
      "type": "event"
    },
    {
      "anonymous": false,
      "inputs": [
        {
          "indexed": false,
          "internalType": "address",
          "name": "sender",
          "type": "address"
        },
        {
          "indexed": false,
          "internalType": "uint256",
          "name": "tokenId",
          "type": "uint256"
        },
        {
          "indexed": false,
          "internalType": "uint256",
          "name": "characterIndex",
          "type": "uint256"
        }
      ],
      "name": "CharacterNFTMinted",
      "type": "event"
    },
    {
      "anonymous": false,
      "inputs": [
        {
          "indexed": true,
          "internalType": "address",
          "name": "from",
          "type": "address"
        },
        {
          "indexed": true,
          "internalType": "address",
          "name": "to",
          "type": "address"
        },
        {
          "indexed": true,
          "internalType": "uint256",
          "name": "tokenId",
          "type": "uint256"
        }
      ],
      "name": "Transfer",
      "type": "event"
    },
    {
      "inputs": [
        {
          "internalType": "address",
          "name": "to",
          "type": "address"
        },
        {
          "internalType": "uint256",
          "name": "tokenId",
          "type": "uint256"
        }
      ],
      "name": "approve",
      "outputs": [],
      "stateMutability": "nonpayable",
      "type": "function"
    },
    {
      "inputs": [],
      "name": "attackBoss",
      "outputs": [],
      "stateMutability": "nonpayable",
      "type": "function"
    },
    {
      "inputs": [
        {
          "internalType": "address",
          "name": "owner",
          "type": "address"
        }
      ],
      "name": "balanceOf",
      "outputs": [
        {
          "internalType": "uint256",
          "name": "",
          "type": "uint256"
        }
      ],
      "stateMutability": "view",
      "type": "function"
    },
    {
      "inputs": [],
      "name": "bigBoss",
      "outputs": [
        {
          "internalType": "string",
          "name": "name",
          "type": "string"
        },
        {
          "internalType": "string",
          "name": "imageURI",
          "type": "string"
        },
        {
          "internalType": "uint256",
          "name": "hp",
          "type": "uint256"
        },
        {
          "internalType": "uint256",
          "name": "maxHp",
          "type": "uint256"
        },
        {
          "internalType": "uint256",
          "name": "attackDamage",
          "type": "uint256"
        }
      ],
      "stateMutability": "view",
      "type": "function"
    },
    {
      "inputs": [],
      "name": "checkIfUserHasNFT",
      "outputs": [
        {
          "components": [
            {
              "internalType": "uint256",
              "name": "characterIndex",
              "type": "uint256"
            },
            {
              "internalType": "string",
              "name": "name",
              "type": "string"
            },
            {
              "internalType": "string",
              "name": "imageURI",
              "type": "string"
            },
            {
              "internalType": "uint256",
              "name": "hp",
              "type": "uint256"
            },
            {
              "internalType": "uint256",
              "name": "maxHp",
              "type": "uint256"
            },
            {
              "internalType": "uint256",
              "name": "mana",
              "type": "uint256"
            },
            {
              "internalType": "uint256",
              "name": "maxMana",
              "type": "uint256"
            },
            {
              "internalType": "uint256",
              "name": "spellDamage",
              "type": "uint256"
            }
          ],
          "internalType": "struct WizardsGame.CharacterAttributes",
          "name": "",
          "type": "tuple"
        }
      ],
      "stateMutability": "view",
      "type": "function"
    },
    {
      "inputs": [],
      "name": "getAllDefaultWizards",
      "outputs": [
        {
          "components": [
            {
              "internalType": "uint256",
              "name": "characterIndex",
              "type": "uint256"
            },
            {
              "internalType": "string",
              "name": "name",
              "type": "string"
            },
            {
              "internalType": "string",
              "name": "imageURI",
              "type": "string"
            },
            {
              "internalType": "uint256",
              "name": "hp",
              "type": "uint256"
            },
            {
              "internalType": "uint256",
              "name": "maxHp",
              "type": "uint256"
            },
            {
              "internalType": "uint256",
              "name": "mana",
              "type": "uint256"
            },
            {
              "internalType": "uint256",
              "name": "maxMana",
              "type": "uint256"
            },
            {
              "internalType": "uint256",
              "name": "spellDamage",
              "type": "uint256"
            }
          ],
          "internalType": "struct WizardsGame.CharacterAttributes[]",
          "name": "",
          "type": "tuple[]"
        }
      ],
      "stateMutability": "view",
      "type": "function"
    },
    {
      "inputs": [
        {
          "internalType": "uint256",
          "name": "tokenId",
          "type": "uint256"
        }
      ],
      "name": "getApproved",
      "outputs": [
        {
          "internalType": "address",
          "name": "",
          "type": "address"
        }
      ],
      "stateMutability": "view",
      "type": "function"
    },
    {
      "inputs": [],
      "name": "getBigBoss",
      "outputs": [
        {
          "components": [
            {
              "internalType": "string",
              "name": "name",
              "type": "string"
            },
            {
              "internalType": "string",
              "name": "imageURI",
              "type": "string"
            },
            {
              "internalType": "uint256",
              "name": "hp",
              "type": "uint256"
            },
            {
              "internalType": "uint256",
              "name": "maxHp",
              "type": "uint256"
            },
            {
              "internalType": "uint256",
              "name": "attackDamage",
              "type": "uint256"
            }
          ],
          "internalType": "struct WizardsGame.BigBoss",
          "name": "",
          "type": "tuple"
        }
      ],
      "stateMutability": "view",
      "type": "function"
    },
    {
      "inputs": [
        {
          "internalType": "address",
          "name": "owner",
          "type": "address"
        },
        {
          "internalType": "address",
          "name": "operator",
          "type": "address"
        }
      ],
      "name": "isApprovedForAll",
      "outputs": [
        {
          "internalType": "bool",
          "name": "",
          "type": "bool"
        }
      ],
      "stateMutability": "view",
      "type": "function"
    },
    {
      "inputs": [
        {
          "internalType": "uint256",
          "name": "_characterIndex",
          "type": "uint256"
        }
      ],
      "name": "mintCharacterNFT",
      "outputs": [],
      "stateMutability": "nonpayable",
      "type": "function"
    },
    {
      "inputs": [],
      "name": "name",
      "outputs": [
        {
          "internalType": "string",
          "name": "",
          "type": "string"
        }
      ],
      "stateMutability": "view",
      "type": "function"
    },
    {
      "inputs": [
        {
          "internalType": "uint256",
          "name": "",
          "type": "uint256"
        }
      ],
      "name": "nftHolderAttributes",
      "outputs": [
        {
          "internalType": "uint256",
          "name": "characterIndex",
          "type": "uint256"
        },
        {
          "internalType": "string",
          "name": "name",
          "type": "string"
        },
        {
          "internalType": "string",
          "name": "imageURI",
          "type": "string"
        },
        {
          "internalType": "uint256",
          "name": "hp",
          "type": "uint256"
        },
        {
          "internalType": "uint256",
          "name": "maxHp",
          "type": "uint256"
        },
        {
          "internalType": "uint256",
          "name": "mana",
          "type": "uint256"
        },
        {
          "internalType": "uint256",
          "name": "maxMana",
          "type": "uint256"
        },
        {
          "internalType": "uint256",
          "name": "spellDamage",
          "type": "uint256"
        }
      ],
      "stateMutability": "view",
      "type": "function"
    },
    {
      "inputs": [
        {
          "internalType": "address",
          "name": "",
          "type": "address"
        }
      ],
      "name": "nftHolders",
      "outputs": [
        {
          "internalType": "uint256",
          "name": "",
          "type": "uint256"
        }
      ],
      "stateMutability": "view",
      "type": "function"
    },
    {
      "inputs": [
        {
          "internalType": "uint256",
          "name": "tokenId",
          "type": "uint256"
        }
      ],
      "name": "ownerOf",
      "outputs": [
        {
          "internalType": "address",
          "name": "",
          "type": "address"
        }
      ],
      "stateMutability": "view",
      "type": "function"
    },
    {
      "inputs": [
        {
          "internalType": "address",
          "name": "from",
          "type": "address"
        },
        {
          "internalType": "address",
          "name": "to",
          "type": "address"
        },
        {
          "internalType": "uint256",
          "name": "tokenId",
          "type": "uint256"
        }
      ],
      "name": "safeTransferFrom",
      "outputs": [],
      "stateMutability": "nonpayable",
      "type": "function"
    },
    {
      "inputs": [
        {
          "internalType": "address",
          "name": "from",
          "type": "address"
        },
        {
          "internalType": "address",
          "name": "to",
          "type": "address"
        },
        {
          "internalType": "uint256",
          "name": "tokenId",
          "type": "uint256"
        },
        {
          "internalType": "bytes",
          "name": "_data",
          "type": "bytes"
        }
      ],
      "name": "safeTransferFrom",
      "outputs": [],
      "stateMutability": "nonpayable",
      "type": "function"
    },
    {
      "inputs": [
        {
          "internalType": "address",
          "name": "operator",
          "type": "address"
        },
        {
          "internalType": "bool",
          "name": "approved",
          "type": "bool"
        }
      ],
      "name": "setApprovalForAll",
      "outputs": [],
      "stateMutability": "nonpayable",
      "type": "function"
    },
    {
      "inputs": [
        {
          "internalType": "bytes4",
          "name": "interfaceId",
          "type": "bytes4"
        }
      ],
      "name": "supportsInterface",
      "outputs": [
        {
          "internalType": "bool",
          "name": "",
          "type": "bool"
        }
      ],
      "stateMutability": "view",
      "type": "function"
    },
    {
      "inputs": [],
      "name": "symbol",
      "outputs": [
        {
          "internalType": "string",
          "name": "",
          "type": "string"
        }
      ],
      "stateMutability": "view",
      "type": "function"
    },
    {
      "inputs": [
        {
          "internalType": "uint256",
          "name": "_tokenId",
          "type": "uint256"
        }
      ],
      "name": "tokenURI",
      "outputs": [
        {
          "internalType": "string",
          "name": "",
          "type": "string"
        }
      ],
      "stateMutability": "view",
      "type": "function"
    },
    {
      "inputs": [
        {
          "internalType": "address",
          "name": "from",
          "type": "address"
        },
        {
          "internalType": "address",
          "name": "to",
          "type": "address"
        },
        {
          "internalType": "uint256",
          "name": "tokenId",
          "type": "uint256"
        }
      ],
      "name": "transferFrom",
      "outputs": [],
      "stateMutability": "nonpayable",
      "type": "function"
    }
  ],
  "bytecode": "0x60806040523480156200001157600080fd5b5060405162005cc838038062005cc8833981810160405281019062000037919062000bea565b6040518060400160405280600781526020017f57697a61726473000000000000000000000000000000000000000000000000008152506040518060400160405280600381526020017f57495a00000000000000000000000000000000000000000000000000000000008152508160009080519060200190620000bb92919062000952565b508060019080519060200190620000d492919062000952565b50505060005b8951811015620005ab5760076040518061010001604052808381526020018c848151811062000132577f4e487b7100000000000000000000000000000000000000000000000000000000600052603260045260246000fd5b602002602001015181526020018b848151811062000179577f4e487b7100000000000000000000000000000000000000000000000000000000600052603260045260246000fd5b602002602001015181526020018a8481518110620001c0577f4e487b7100000000000000000000000000000000000000000000000000000000600052603260045260246000fd5b602002602001015181526020018a848151811062000207577f4e487b7100000000000000000000000000000000000000000000000000000000600052603260045260246000fd5b602002602001015181526020018984815181106200024e577f4e487b7100000000000000000000000000000000000000000000000000000000600052603260045260246000fd5b6020026020010151815260200189848151811062000295577f4e487b7100000000000000000000000000000000000000000000000000000000600052603260045260246000fd5b60200260200101518152602001888481518110620002dc577f4e487b7100000000000000000000000000000000000000000000000000000000600052603260045260246000fd5b602002602001015181525090806001815401808255809150506001900390600052602060002090600802016000909190919091506000820151816000015560208201518160010190805190602001906200033892919062000952565b5060408201518160020190805190602001906200035792919062000952565b50606082015181600301556080820151816004015560a0820151816005015560c0820151816006015560e082015181600701555050600060078281548110620003c9577f4e487b7100000000000000000000000000000000000000000000000000000000600052603260045260246000fd5b90600052602060002090600802016040518061010001604052908160008201548152602001600182018054620003ff9062000ff7565b80601f01602080910402602001604051908101604052809291908181526020018280546200042d9062000ff7565b80156200047e5780601f1062000452576101008083540402835291602001916200047e565b820191906000526020600020905b8154815290600101906020018083116200046057829003601f168201915b50505050508152602001600282018054620004999062000ff7565b80601f0160208091040260200160405190810160405280929190818152602001828054620004c79062000ff7565b8015620005185780601f10620004ec5761010080835404028352916020019162000518565b820191906000526020600020905b815481529060010190602001808311620004fa57829003601f168201915b505050505081526020016003820154815260200160048201548152602001600582015481526020016006820154815260200160078201548152505090506200059360405180606001604052806025815260200162005c7960259139826020015183606001518460e00151620007bb60201b62001e6c1760201c565b50600181620005a3919062000f5a565b9050620000da565b506040518060a001604052808581526020018481526020018381526020018381526020018281525060086000820151816000019080519060200190620005f392919062000952565b5060208201518160010190805190602001906200061292919062000952565b50604082015181600201556060820151816003015560808201518160040155905050620007956040518060600160405280602a815260200162005c9e602a913960086000018054620006649062000ff7565b80601f0160208091040260200160405190810160405280929190818152602001828054620006929062000ff7565b8015620006e35780601f10620006b757610100808354040283529160200191620006e3565b820191906000526020600020905b815481529060010190602001808311620006c557829003601f168201915b505050505060086002015460086001018054620007009062000ff7565b80601f01602080910402602001604051908101604052809291908181526020018280546200072e9062000ff7565b80156200077f5780601f1062000753576101008083540402835291602001916200077f565b820191906000526020600020905b8154815290600101906020018083116200076157829003601f168201915b50505050506200086760201b62001f0e1760201c565b620007ac60066200091360201b62001fb01760201c565b5050505050505050506200111b565b6200086184848484604051602401620007d8949392919062000e26565b6040516020818303038152906040527fd5cf17d0000000000000000000000000000000000000000000000000000000007bffffffffffffffffffffffffffffffffffffffffffffffffffffffff19166020820180517bffffffffffffffffffffffffffffffffffffffffffffffffffffffff83818316178352505050506200092960201b60201c565b50505050565b6200090d8484848460405160240162000884949392919062000dc4565b6040516020818303038152906040527f8d142cdd000000000000000000000000000000000000000000000000000000007bffffffffffffffffffffffffffffffffffffffffffffffffffffffff19166020820180517bffffffffffffffffffffffffffffffffffffffffffffffffffffffff83818316178352505050506200092960201b60201c565b50505050565b6001816000016000828254019250508190555050565b60008151905060006a636f6e736f6c652e6c6f679050602083016000808483855afa5050505050565b828054620009609062000ff7565b90600052602060002090601f016020900481019282620009845760008555620009d0565b82601f106200099f57805160ff1916838001178555620009d0565b82800160010185558215620009d0579182015b82811115620009cf578251825591602001919060010190620009b2565b5b509050620009df9190620009e3565b5090565b5b80821115620009fe576000816000905550600101620009e4565b5090565b600062000a1962000a138462000eaa565b62000e81565b9050808382526020820190508285602086028201111562000a3957600080fd5b60005b8581101562000a8857815167ffffffffffffffff81111562000a5d57600080fd5b80860162000a6c898262000ba6565b8552602085019450602084019350505060018101905062000a3c565b5050509392505050565b600062000aa962000aa38462000ed9565b62000e81565b9050808382526020820190508285602086028201111562000ac957600080fd5b60005b8581101562000afd578162000ae2888262000bd3565b84526020840193506020830192505060018101905062000acc565b5050509392505050565b600062000b1e62000b188462000f08565b62000e81565b90508281526020810184848401111562000b3757600080fd5b62000b4484828562000fc1565b509392505050565b600082601f83011262000b5e57600080fd5b815162000b7084826020860162000a02565b91505092915050565b600082601f83011262000b8b57600080fd5b815162000b9d84826020860162000a92565b91505092915050565b600082601f83011262000bb857600080fd5b815162000bca84826020860162000b07565b91505092915050565b60008151905062000be48162001101565b92915050565b60008060008060008060008060006101208a8c03121562000c0a57600080fd5b60008a015167ffffffffffffffff81111562000c2557600080fd5b62000c338c828d0162000b4c565b99505060208a015167ffffffffffffffff81111562000c5157600080fd5b62000c5f8c828d0162000b4c565b98505060408a015167ffffffffffffffff81111562000c7d57600080fd5b62000c8b8c828d0162000b79565b97505060608a015167ffffffffffffffff81111562000ca957600080fd5b62000cb78c828d0162000b79565b96505060808a015167ffffffffffffffff81111562000cd557600080fd5b62000ce38c828d0162000b79565b95505060a08a015167ffffffffffffffff81111562000d0157600080fd5b62000d0f8c828d0162000ba6565b94505060c08a015167ffffffffffffffff81111562000d2d57600080fd5b62000d3b8c828d0162000ba6565b93505060e062000d4e8c828d0162000bd3565b92505061010062000d628c828d0162000bd3565b9150509295985092959850929598565b600062000d7f8262000f3e565b62000d8b818562000f49565b935062000d9d81856020860162000fc1565b62000da881620010f0565b840191505092915050565b62000dbe8162000fb7565b82525050565b6000608082019050818103600083015262000de0818762000d72565b9050818103602083015262000df6818662000d72565b905062000e07604083018562000db3565b818103606083015262000e1b818462000d72565b905095945050505050565b6000608082019050818103600083015262000e42818762000d72565b9050818103602083015262000e58818662000d72565b905062000e69604083018562000db3565b62000e78606083018462000db3565b95945050505050565b600062000e8d62000ea0565b905062000e9b82826200102d565b919050565b6000604051905090565b600067ffffffffffffffff82111562000ec85762000ec7620010c1565b5b602082029050602081019050919050565b600067ffffffffffffffff82111562000ef75762000ef6620010c1565b5b602082029050602081019050919050565b600067ffffffffffffffff82111562000f265762000f25620010c1565b5b62000f3182620010f0565b9050602081019050919050565b600081519050919050565b600082825260208201905092915050565b600062000f678262000fb7565b915062000f748362000fb7565b9250827fffffffffffffffffffffffffffffffffffffffffffffffffffffffffffffffff0382111562000fac5762000fab62001063565b5b828201905092915050565b6000819050919050565b60005b8381101562000fe157808201518184015260208101905062000fc4565b8381111562000ff1576000848401525b50505050565b600060028204905060018216806200101057607f821691505b6020821081141562001027576200102662001092565b5b50919050565b6200103882620010f0565b810181811067ffffffffffffffff821117156200105a5762001059620010c1565b5b80604052505050565b7f4e487b7100000000000000000000000000000000000000000000000000000000600052601160045260246000fd5b7f4e487b7100000000000000000000000000000000000000000000000000000000600052602260045260246000fd5b7f4e487b7100000000000000000000000000000000000000000000000000000000600052604160045260246000fd5b6000601f19601f8301169050919050565b6200110c8162000fb7565b81146200111857600080fd5b50565b614b4e806200112b6000396000f3fe608060405234801561001057600080fd5b50600436106101375760003560e01c806395d89b41116100b8578063c87b56dd1161007c578063c87b56dd1461036b578063c8cf27f41461039b578063d4f24c5b146103b9578063e985e9c5146103c3578063f18e3440146103f3578063f8b81ef71461041157610137565b806395d89b41146102bc57806398da4c95146102da578063a22cb46514610311578063a9c326791461032d578063b88d4fde1461034f57610137565b806323b872dd116100ff57806323b872dd146101f457806342842e0e146102105780636352211e1461022c57806370a082311461025c5780637df124a11461028c57610137565b806301ffc9a71461013c5780630665f9611461016c57806306fdde031461018a578063081812fc146101a8578063095ea7b3146101d8575b600080fd5b61015660048036038101906101519190613136565b61042d565b6040516101639190613a3c565b60405180910390f35b61017461050f565b6040516101819190613dd5565b60405180910390f35b61019261066b565b60405161019f9190613a57565b60405180910390f35b6101c260048036038101906101bd9190613188565b6106fd565b6040516101cf919061397c565b60405180910390f35b6101f260048036038101906101ed91906130fa565b610782565b005b61020e60048036038101906102099190612ff4565b61089a565b005b61022a60048036038101906102259190612ff4565b6108fa565b005b61024660048036038101906102419190613188565b61091a565b604051610253919061397c565b60405180910390f35b61027660048036038101906102719190612f8f565b6109cc565b6040516102839190613e19565b60405180910390f35b6102a660048036038101906102a19190612f8f565b610a84565b6040516102b39190613e19565b60405180910390f35b6102c4610a9c565b6040516102d19190613a57565b60405180910390f35b6102f460048036038101906102ef9190613188565b610b2e565b604051610308989796959493929190613e34565b60405180910390f35b61032b600480360381019061032691906130be565b610c86565b005b610335610e07565b604051610346959493929190613b26565b60405180910390f35b61036960048036038101906103649190613043565b610f3b565b005b61038560048036038101906103809190613188565b610f9d565b6040516103929190613a57565b60405180910390f35b6103a36111f5565b6040516103b09190613df7565b60405180910390f35b6103c16113e2565b005b6103dd60048036038101906103d89190612fb8565b61176d565b6040516103ea9190613a3c565b60405180910390f35b6103fb611801565b6040516104089190613a1a565b60405180910390f35b61042b60048036038101906104269190613188565b6119c1565b005b60007f80ac58cd000000000000000000000000000000000000000000000000000000007bffffffffffffffffffffffffffffffffffffffffffffffffffffffff1916827bffffffffffffffffffffffffffffffffffffffffffffffffffffffff191614806104f857507f5b5e139f000000000000000000000000000000000000000000000000000000007bffffffffffffffffffffffffffffffffffffffffffffffffffffffff1916827bffffffffffffffffffffffffffffffffffffffffffffffffffffffff1916145b80610508575061050782611fc6565b5b9050919050565b610517612da7565b60086040518060a001604052908160008201805461053490614197565b80601f016020809104026020016040519081016040528092919081815260200182805461056090614197565b80156105ad5780601f10610582576101008083540402835291602001916105ad565b820191906000526020600020905b81548152906001019060200180831161059057829003601f168201915b505050505081526020016001820180546105c690614197565b80601f01602080910402602001604051908101604052809291908181526020018280546105f290614197565b801561063f5780601f106106145761010080835404028352916020019161063f565b820191906000526020600020905b81548152906001019060200180831161062257829003601f168201915b505050505081526020016002820154815260200160038201548152602001600482015481525050905090565b60606000805461067a90614197565b80601f01602080910402602001604051908101604052809291908181526020018280546106a690614197565b80156106f35780601f106106c8576101008083540402835291602001916106f3565b820191906000526020600020905b8154815290600101906020018083116106d657829003601f168201915b5050505050905090565b600061070882612030565b610747576040517f08c379a000000000000000000000000000000000000000000000000000000000815260040161073e90613d55565b60405180910390fd5b6004600083815260200190815260200160002060009054906101000a900473ffffffffffffffffffffffffffffffffffffffff169050919050565b600061078d8261091a565b90508073ffffffffffffffffffffffffffffffffffffffff168373ffffffffffffffffffffffffffffffffffffffff1614156107fe576040517f08c379a00000000000000000000000000000000000000000000000000000000081526004016107f590613d95565b60405180910390fd5b8073ffffffffffffffffffffffffffffffffffffffff1661081d61209c565b73ffffffffffffffffffffffffffffffffffffffff16148061084c575061084b8161084661209c565b61176d565b5b61088b576040517f08c379a000000000000000000000000000000000000000000000000000000000815260040161088290613cb5565b60405180910390fd5b61089583836120a4565b505050565b6108ab6108a561209c565b8261215d565b6108ea576040517f08c379a00000000000000000000000000000000000000000000000000000000081526004016108e190613db5565b60405180910390fd5b6108f583838361223b565b505050565b61091583838360405180602001604052806000815250610f3b565b505050565b6000806002600084815260200190815260200160002060009054906101000a900473ffffffffffffffffffffffffffffffffffffffff169050600073ffffffffffffffffffffffffffffffffffffffff168173ffffffffffffffffffffffffffffffffffffffff1614156109c3576040517f08c379a00000000000000000000000000000000000000000000000000000000081526004016109ba90613cf5565b60405180910390fd5b80915050919050565b60008073ffffffffffffffffffffffffffffffffffffffff168273ffffffffffffffffffffffffffffffffffffffff161415610a3d576040517f08c379a0000000000000000000000000000000000000000000000000000000008152600401610a3490613cd5565b60405180910390fd5b600360008373ffffffffffffffffffffffffffffffffffffffff1673ffffffffffffffffffffffffffffffffffffffff168152602001908152602001600020549050919050565b600e6020528060005260406000206000915090505481565b606060018054610aab90614197565b80601f0160208091040260200160405190810160405280929190818152602001828054610ad790614197565b8015610b245780601f10610af957610100808354040283529160200191610b24565b820191906000526020600020905b815481529060010190602001808311610b0757829003601f168201915b5050505050905090565b600d602052806000526040600020600091509050806000015490806001018054610b5790614197565b80601f0160208091040260200160405190810160405280929190818152602001828054610b8390614197565b8015610bd05780601f10610ba557610100808354040283529160200191610bd0565b820191906000526020600020905b815481529060010190602001808311610bb357829003601f168201915b505050505090806002018054610be590614197565b80601f0160208091040260200160405190810160405280929190818152602001828054610c1190614197565b8015610c5e5780601f10610c3357610100808354040283529160200191610c5e565b820191906000526020600020905b815481529060010190602001808311610c4157829003601f168201915b5050505050908060030154908060040154908060050154908060060154908060070154905088565b610c8e61209c565b73ffffffffffffffffffffffffffffffffffffffff168273ffffffffffffffffffffffffffffffffffffffff161415610cfc576040517f08c379a0000000000000000000000000000000000000000000000000000000008152600401610cf390613c75565b60405180910390fd5b8060056000610d0961209c565b73ffffffffffffffffffffffffffffffffffffffff1673ffffffffffffffffffffffffffffffffffffffff16815260200190815260200160002060008473ffffffffffffffffffffffffffffffffffffffff1673ffffffffffffffffffffffffffffffffffffffff16815260200190815260200160002060006101000a81548160ff0219169083151502179055508173ffffffffffffffffffffffffffffffffffffffff16610db661209c565b73ffffffffffffffffffffffffffffffffffffffff167f17307eab39ab6107e8899845ad3d59bd9653f200f220920489ca2b5937696c3183604051610dfb9190613a3c565b60405180910390a35050565b6008806000018054610e1890614197565b80601f0160208091040260200160405190810160405280929190818152602001828054610e4490614197565b8015610e915780601f10610e6657610100808354040283529160200191610e91565b820191906000526020600020905b815481529060010190602001808311610e7457829003601f168201915b505050505090806001018054610ea690614197565b80601f0160208091040260200160405190810160405280929190818152602001828054610ed290614197565b8015610f1f5780601f10610ef457610100808354040283529160200191610f1f565b820191906000526020600020905b815481529060010190602001808311610f0257829003601f168201915b5050505050908060020154908060030154908060040154905085565b610f4c610f4661209c565b8361215d565b610f8b576040517f08c379a0000000000000000000000000000000000000000000000000000000008152600401610f8290613db5565b60405180910390fd5b610f9784848484612497565b50505050565b60606000600d60008481526020019081526020016000206040518061010001604052908160008201548152602001600182018054610fda90614197565b80601f016020809104026020016040519081016040528092919081815260200182805461100690614197565b80156110535780601f1061102857610100808354040283529160200191611053565b820191906000526020600020905b81548152906001019060200180831161103657829003601f168201915b5050505050815260200160028201805461106c90614197565b80601f016020809104026020016040519081016040528092919081815260200182805461109890614197565b80156110e55780601f106110ba576101008083540402835291602001916110e5565b820191906000526020600020905b8154815290600101906020018083116110c857829003601f168201915b50505050508152602001600382015481526020016004820154815260200160058201548152602001600682015481526020016007820154815250509050600061113182606001516124f3565b9050600061114283608001516124f3565b905060006111538460a001516124f3565b905060006111648560c001516124f3565b905060006111758660e001516124f3565b905060006111bf876020015161118a8b6124f3565b896040015189898989896040516020016111ab989796959493929190613885565b6040516020818303038152906040526126a0565b90506000816040516020016111d4919061395a565b60405160208183030381529060405290508098505050505050505050919050565b6111fd612dd6565b6000600e60003373ffffffffffffffffffffffffffffffffffffffff1673ffffffffffffffffffffffffffffffffffffffff16815260200190815260200160002054905060008111156113d157600d6000828152602001908152602001600020604051806101000160405290816000820154815260200160018201805461128390614197565b80601f01602080910402602001604051908101604052809291908181526020018280546112af90614197565b80156112fc5780601f106112d1576101008083540402835291602001916112fc565b820191906000526020600020905b8154815290600101906020018083116112df57829003601f168201915b5050505050815260200160028201805461131590614197565b80601f016020809104026020016040519081016040528092919081815260200182805461134190614197565b801561138e5780601f106113635761010080835404028352916020019161138e565b820191906000526020600020905b81548152906001019060200180831161137157829003601f168201915b50505050508152602001600382015481526020016004820154815260200160058201548152602001600682015481526020016007820154815250509150506113df565b6113d9612dd6565b80925050505b90565b6000600e60003373ffffffffffffffffffffffffffffffffffffffff1673ffffffffffffffffffffffffffffffffffffffff1681526020019081526020016000205490506000600d600083815260200190815260200160002090506114f56040518060600160405280603c8152602001614add603c913982600101805461146890614197565b80601f016020809104026020016040519081016040528092919081815260200182805461149490614197565b80156114e15780601f106114b6576101008083540402835291602001916114e1565b820191906000526020600020905b8154815290600101906020018083116114c457829003601f168201915b505050505083600301548460070154611e6c565b6115cd6040518060400160405280601b81526020017f426f73732025732068617320257320485020616e6420257320414400000000008152506008600001805461153e90614197565b80601f016020809104026020016040519081016040528092919081815260200182805461156a90614197565b80156115b75780601f1061158c576101008083540402835291602001916115b7565b820191906000526020600020905b81548152906001019060200180831161159a57829003601f168201915b5050505050600860020154600860040154611e6c565b6000816003015411611614576040517f08c379a000000000000000000000000000000000000000000000000000000000815260040161160b90613d15565b60405180910390fd5b60006008600201541161165c576040517f08c379a000000000000000000000000000000000000000000000000000000000815260040161165390613c15565b60405180910390fd5b8060070154600860020154101561167d57600060086002018190555061169c565b806007015460086002015461169291906140ad565b6008600201819055505b600860040154816003015410156116bc57600081600301819055506116da565b60086004015481600301546116d191906140ad565b81600301819055505b611701604051806060016040528060258152602001614a226025913960086002015461283f565b611727604051806060016040528060288152602001614a8760289139826003015461283f565b7f838ab28464562786a6c4ab2311964b82fa60bd9b14aa7e856af1f3f18d41a4146008600201548260030154604051611761929190613ec0565b60405180910390a15050565b6000600560008473ffffffffffffffffffffffffffffffffffffffff1673ffffffffffffffffffffffffffffffffffffffff16815260200190815260200160002060008373ffffffffffffffffffffffffffffffffffffffff1673ffffffffffffffffffffffffffffffffffffffff16815260200190815260200160002060009054906101000a900460ff16905092915050565b60606007805480602002602001604051908101604052809291908181526020016000905b828210156119b85783829060005260206000209060080201604051806101000160405290816000820154815260200160018201805461186390614197565b80601f016020809104026020016040519081016040528092919081815260200182805461188f90614197565b80156118dc5780601f106118b1576101008083540402835291602001916118dc565b820191906000526020600020905b8154815290600101906020018083116118bf57829003601f168201915b505050505081526020016002820180546118f590614197565b80601f016020809104026020016040519081016040528092919081815260200182805461192190614197565b801561196e5780601f106119435761010080835404028352916020019161196e565b820191906000526020600020905b81548152906001019060200180831161195157829003601f168201915b505050505081526020016003820154815260200160048201548152602001600582015481526020016006820154815260200160078201548152505081526020019060010190611825565b50505050905090565b60006119cd60066128db565b90506119d933826128e9565b60405180610100016040528083815260200160078481548110611a25577f4e487b7100000000000000000000000000000000000000000000000000000000600052603260045260246000fd5b90600052602060002090600802016001018054611a4190614197565b80601f0160208091040260200160405190810160405280929190818152602001828054611a6d90614197565b8015611aba5780601f10611a8f57610100808354040283529160200191611aba565b820191906000526020600020905b815481529060010190602001808311611a9d57829003601f168201915b5050505050815260200160078481548110611afe577f4e487b7100000000000000000000000000000000000000000000000000000000600052603260045260246000fd5b90600052602060002090600802016002018054611b1a90614197565b80601f0160208091040260200160405190810160405280929190818152602001828054611b4690614197565b8015611b935780601f10611b6857610100808354040283529160200191611b93565b820191906000526020600020905b815481529060010190602001808311611b7657829003601f168201915b5050505050815260200160078481548110611bd7577f4e487b7100000000000000000000000000000000000000000000000000000000600052603260045260246000fd5b906000526020600020906008020160030154815260200160078481548110611c28577f4e487b7100000000000000000000000000000000000000000000000000000000600052603260045260246000fd5b906000526020600020906008020160040154815260200160078481548110611c79577f4e487b7100000000000000000000000000000000000000000000000000000000600052603260045260246000fd5b906000526020600020906008020160050154815260200160078481548110611cca577f4e487b7100000000000000000000000000000000000000000000000000000000600052603260045260246000fd5b906000526020600020906008020160060154815260200160078481548110611d1b577f4e487b7100000000000000000000000000000000000000000000000000000000600052603260045260246000fd5b906000526020600020906008020160070154815250600d6000838152602001908152602001600020600082015181600001556020820151816001019080519060200190611d69929190612e1b565b506040820151816002019080519060200190611d86929190612e1b565b50606082015181600301556080820151816004015560a0820151816005015560c0820151816006015560e08201518160070155905050611ddf6040518060600160405280602e8152602001614aaf602e91398284612907565b80600e60003373ffffffffffffffffffffffffffffffffffffffff1673ffffffffffffffffffffffffffffffffffffffff16815260200190815260200160002081905550611e2d6006611fb0565b7f4bc303fd457a97b4691b9af582ce71868a3d258638c8d4f8c60988a0f0bfb8cd338284604051611e60939291906139e3565b60405180910390a15050565b611f0884848484604051602401611e869493929190613ad3565b6040516020818303038152906040527fd5cf17d0000000000000000000000000000000000000000000000000000000007bffffffffffffffffffffffffffffffffffffffffffffffffffffffff19166020820180517bffffffffffffffffffffffffffffffffffffffffffffffffffffffff83818316178352505050506129a6565b50505050565b611faa84848484604051602401611f289493929190613a79565b6040516020818303038152906040527f8d142cdd000000000000000000000000000000000000000000000000000000007bffffffffffffffffffffffffffffffffffffffffffffffffffffffff19166020820180517bffffffffffffffffffffffffffffffffffffffffffffffffffffffff83818316178352505050506129a6565b50505050565b6001816000016000828254019250508190555050565b60007f01ffc9a7000000000000000000000000000000000000000000000000000000007bffffffffffffffffffffffffffffffffffffffffffffffffffffffff1916827bffffffffffffffffffffffffffffffffffffffffffffffffffffffff1916149050919050565b60008073ffffffffffffffffffffffffffffffffffffffff166002600084815260200190815260200160002060009054906101000a900473ffffffffffffffffffffffffffffffffffffffff1673ffffffffffffffffffffffffffffffffffffffff1614159050919050565b600033905090565b816004600083815260200190815260200160002060006101000a81548173ffffffffffffffffffffffffffffffffffffffff021916908373ffffffffffffffffffffffffffffffffffffffff160217905550808273ffffffffffffffffffffffffffffffffffffffff166121178361091a565b73ffffffffffffffffffffffffffffffffffffffff167f8c5be1e5ebec7d5bd14f71427d1e84f3dd0314c0f7b2291e5b200ac8c7c3b92560405160405180910390a45050565b600061216882612030565b6121a7576040517f08c379a000000000000000000000000000000000000000000000000000000000815260040161219e90613c95565b60405180910390fd5b60006121b28361091a565b90508073ffffffffffffffffffffffffffffffffffffffff168473ffffffffffffffffffffffffffffffffffffffff16148061222157508373ffffffffffffffffffffffffffffffffffffffff16612209846106fd565b73ffffffffffffffffffffffffffffffffffffffff16145b806122325750612231818561176d565b5b91505092915050565b8273ffffffffffffffffffffffffffffffffffffffff1661225b8261091a565b73ffffffffffffffffffffffffffffffffffffffff16146122b1576040517f08c379a00000000000000000000000000000000000000000000000000000000081526004016122a890613d75565b60405180910390fd5b600073ffffffffffffffffffffffffffffffffffffffff168273ffffffffffffffffffffffffffffffffffffffff161415612321576040517f08c379a000000000000000000000000000000000000000000000000000000000815260040161231890613c55565b60405180910390fd5b61232c8383836129cf565b6123376000826120a4565b6001600360008573ffffffffffffffffffffffffffffffffffffffff1673ffffffffffffffffffffffffffffffffffffffff168152602001908152602001600020600082825461238791906140ad565b925050819055506001600360008473ffffffffffffffffffffffffffffffffffffffff1673ffffffffffffffffffffffffffffffffffffffff16815260200190815260200160002060008282546123de9190613fcc565b92505081905550816002600083815260200190815260200160002060006101000a81548173ffffffffffffffffffffffffffffffffffffffff021916908373ffffffffffffffffffffffffffffffffffffffff160217905550808273ffffffffffffffffffffffffffffffffffffffff168473ffffffffffffffffffffffffffffffffffffffff167fddf252ad1be2c89b69c2b068fc378daa952ba7f163c4a11628f55a4df523b3ef60405160405180910390a4505050565b6124a284848461223b565b6124ae848484846129d4565b6124ed576040517f08c379a00000000000000000000000000000000000000000000000000000000081526004016124e490613bf5565b60405180910390fd5b50505050565b6060600082141561253b576040518060400160405280600181526020017f3000000000000000000000000000000000000000000000000000000000000000815250905061269b565b600082905060005b6000821461256d578080612556906141fa565b915050600a826125669190614022565b9150612543565b60008167ffffffffffffffff8111156125af577f4e487b7100000000000000000000000000000000000000000000000000000000600052604160045260246000fd5b6040519080825280601f01601f1916602001820160405280156125e15781602001600182028036833780820191505090505b5090505b60008514612694576001826125fa91906140ad565b9150600a856126099190614243565b60306126159190613fcc565b60f81b818381518110612651577f4e487b7100000000000000000000000000000000000000000000000000000000600052603260045260246000fd5b60200101907effffffffffffffffffffffffffffffffffffffffffffffffffffffffffffff1916908160001a905350600a8561268d9190614022565b94506125e5565b8093505050505b919050565b60606000825114156126c35760405180602001604052806000815250905061283a565b6000604051806060016040528060408152602001614a4760409139905060006003600285516126f29190613fcc565b6126fc9190614022565b60046127089190614053565b905060006020826127199190613fcc565b67ffffffffffffffff811115612758577f4e487b7100000000000000000000000000000000000000000000000000000000600052604160045260246000fd5b6040519080825280601f01601f19166020018201604052801561278a5781602001600182028036833780820191505090505b509050818152600183018586518101602084015b818310156127f9576003830192508251603f8160121c168501518253600182019150603f81600c1c168501518253600182019150603f8160061c168501518253600182019150603f811685015182536001820191505061279e565b60038951066001811461281357600281146128235761282e565b613d3d60f01b600283035261282e565b603d60f81b60018303525b50505050508093505050505b919050565b6128d78282604051602401612855929190613b87565b6040516020818303038152906040527f9710a9d0000000000000000000000000000000000000000000000000000000007bffffffffffffffffffffffffffffffffffffffffffffffffffffffff19166020820180517bffffffffffffffffffffffffffffffffffffffffffffffffffffffff83818316178352505050506129a6565b5050565b600081600001549050919050565b612903828260405180602001604052806000815250612b6b565b5050565b6129a183838360405160240161291f93929190613bb7565b6040516020818303038152906040527f969cdd03000000000000000000000000000000000000000000000000000000007bffffffffffffffffffffffffffffffffffffffffffffffffffffffff19166020820180517bffffffffffffffffffffffffffffffffffffffffffffffffffffffff83818316178352505050506129a6565b505050565b60008151905060006a636f6e736f6c652e6c6f679050602083016000808483855afa5050505050565b505050565b60006129f58473ffffffffffffffffffffffffffffffffffffffff16612bc6565b15612b5e578373ffffffffffffffffffffffffffffffffffffffff1663150b7a02612a1e61209c565b8786866040518563ffffffff1660e01b8152600401612a409493929190613997565b602060405180830381600087803b158015612a5a57600080fd5b505af1925050508015612a8b57506040513d601f19601f82011682018060405250810190612a88919061315f565b60015b612b0e573d8060008114612abb576040519150601f19603f3d011682016040523d82523d6000602084013e612ac0565b606091505b50600081511415612b06576040517f08c379a0000000000000000000000000000000000000000000000000000000008152600401612afd90613bf5565b60405180910390fd5b805181602001fd5b63150b7a0260e01b7bffffffffffffffffffffffffffffffffffffffffffffffffffffffff1916817bffffffffffffffffffffffffffffffffffffffffffffffffffffffff191614915050612b63565b600190505b949350505050565b612b758383612bd9565b612b8260008484846129d4565b612bc1576040517f08c379a0000000000000000000000000000000000000000000000000000000008152600401612bb890613bf5565b60405180910390fd5b505050565b600080823b905060008111915050919050565b600073ffffffffffffffffffffffffffffffffffffffff168273ffffffffffffffffffffffffffffffffffffffff161415612c49576040517f08c379a0000000000000000000000000000000000000000000000000000000008152600401612c4090613d35565b60405180910390fd5b612c5281612030565b15612c92576040517f08c379a0000000000000000000000000000000000000000000000000000000008152600401612c8990613c35565b60405180910390fd5b612c9e600083836129cf565b6001600360008473ffffffffffffffffffffffffffffffffffffffff1673ffffffffffffffffffffffffffffffffffffffff1681526020019081526020016000206000828254612cee9190613fcc565b92505081905550816002600083815260200190815260200160002060006101000a81548173ffffffffffffffffffffffffffffffffffffffff021916908373ffffffffffffffffffffffffffffffffffffffff160217905550808273ffffffffffffffffffffffffffffffffffffffff16600073ffffffffffffffffffffffffffffffffffffffff167fddf252ad1be2c89b69c2b068fc378daa952ba7f163c4a11628f55a4df523b3ef60405160405180910390a45050565b6040518060a0016040528060608152602001606081526020016000815260200160008152602001600081525090565b60405180610100016040528060008152602001606081526020016060815260200160008152602001600081526020016000815260200160008152602001600081525090565b828054612e2790614197565b90600052602060002090601f016020900481019282612e495760008555612e90565b82601f10612e6257805160ff1916838001178555612e90565b82800160010185558215612e90579182015b82811115612e8f578251825591602001919060010190612e74565b5b509050612e9d9190612ea1565b5090565b5b80821115612eba576000816000905550600101612ea2565b5090565b6000612ed1612ecc84613f0e565b613ee9565b905082815260208101848484011115612ee957600080fd5b612ef4848285614155565b509392505050565b600081359050612f0b816149c5565b92915050565b600081359050612f20816149dc565b92915050565b600081359050612f35816149f3565b92915050565b600081519050612f4a816149f3565b92915050565b600082601f830112612f6157600080fd5b8135612f71848260208601612ebe565b91505092915050565b600081359050612f8981614a0a565b92915050565b600060208284031215612fa157600080fd5b6000612faf84828501612efc565b91505092915050565b60008060408385031215612fcb57600080fd5b6000612fd985828601612efc565b9250506020612fea85828601612efc565b9150509250929050565b60008060006060848603121561300957600080fd5b600061301786828701612efc565b935050602061302886828701612efc565b925050604061303986828701612f7a565b9150509250925092565b6000806000806080858703121561305957600080fd5b600061306787828801612efc565b945050602061307887828801612efc565b935050604061308987828801612f7a565b925050606085013567ffffffffffffffff8111156130a657600080fd5b6130b287828801612f50565b91505092959194509250565b600080604083850312156130d157600080fd5b60006130df85828601612efc565b92505060206130f085828601612f11565b9150509250929050565b6000806040838503121561310d57600080fd5b600061311b85828601612efc565b925050602061312c85828601612f7a565b9150509250929050565b60006020828403121561314857600080fd5b600061315684828501612f26565b91505092915050565b60006020828403121561317157600080fd5b600061317f84828501612f3b565b91505092915050565b60006020828403121561319a57600080fd5b60006131a884828501612f7a565b91505092915050565b60006131bd83836136f9565b905092915050565b6131ce816140e1565b82525050565b60006131df82613f4f565b6131e98185613f7d565b9350836020820285016131fb85613f3f565b8060005b85811015613237578484038952815161321885826131b1565b945061322383613f70565b925060208a019950506001810190506131ff565b50829750879550505050505092915050565b613252816140f3565b82525050565b600061326382613f5a565b61326d8185613f8e565b935061327d818560208601614164565b61328681614330565b840191505092915050565b600061329c82613f65565b6132a68185613f9f565b93506132b6818560208601614164565b6132bf81614330565b840191505092915050565b60006132d582613f65565b6132df8185613fb0565b93506132ef818560208601614164565b6132f881614330565b840191505092915050565b600061330e82613f65565b6133188185613fc1565b9350613328818560208601614164565b80840191505092915050565b6000613341602483613fc1565b915061334c82614341565b602482019050919050565b6000613364600b83613fc1565b915061336f82614390565b600b82019050919050565b6000613387603283613fb0565b9150613392826143b9565b604082019050919050565b60006133aa602883613fb0565b91506133b582614408565b604082019050919050565b60006133cd601c83613fb0565b91506133d882614457565b602082019050919050565b60006133f0606a83613fc1565b91506133fb82614480565b606a82019050919050565b6000613413600e83613fc1565b915061341e8261451b565b600e82019050919050565b6000613436602483613fb0565b915061344182614544565b604082019050919050565b6000613459601983613fb0565b915061346482614593565b602082019050919050565b600061347c602c83613fb0565b9150613487826145bc565b604082019050919050565b600061349f603883613fb0565b91506134aa8261460b565b604082019050919050565b60006134c2602a83613fb0565b91506134cd8261465a565b604082019050919050565b60006134e5602983613fb0565b91506134f0826146a9565b604082019050919050565b6000613508603c83613fc1565b9150613513826146f8565b603c82019050919050565b600061352b602d83613fb0565b915061353682614747565b604082019050919050565b600061354e600483613fc1565b915061355982614796565b600482019050919050565b6000613571602083613fb0565b915061357c826147bf565b602082019050919050565b6000613594602c83613fb0565b915061359f826147e8565b604082019050919050565b60006135b7602983613fb0565b91506135c282614837565b604082019050919050565b60006135da600a83613fc1565b91506135e582614886565b600a82019050919050565b60006135fd602c83613fc1565b9150613608826148af565b602c82019050919050565b6000613620602183613fb0565b915061362b826148fe565b604082019050919050565b6000613643601d83613fc1565b915061364e8261494d565b601d82019050919050565b6000613666603183613fb0565b915061367182614976565b604082019050919050565b600060a08301600083015184820360008601526136998282613291565b915050602083015184820360208601526136b38282613291565b91505060408301516136c86040860182613867565b5060608301516136db6060860182613867565b5060808301516136ee6080860182613867565b508091505092915050565b6000610100830160008301516137126000860182613867565b506020830151848203602086015261372a8282613291565b915050604083015184820360408601526137448282613291565b91505060608301516137596060860182613867565b50608083015161376c6080860182613867565b5060a083015161377f60a0860182613867565b5060c083015161379260c0860182613867565b5060e08301516137a560e0860182613867565b508091505092915050565b6000610100830160008301516137c96000860182613867565b50602083015184820360208601526137e18282613291565b915050604083015184820360408601526137fb8282613291565b91505060608301516138106060860182613867565b5060808301516138236080860182613867565b5060a083015161383660a0860182613867565b5060c083015161384960c0860182613867565b5060e083015161385c60e0860182613867565b508091505092915050565b6138708161414b565b82525050565b61387f8161414b565b82525050565b6000613890826135cd565b915061389c828b613303565b91506138a782613357565b91506138b3828a613303565b91506138be826133e3565b91506138ca8289613303565b91506138d5826134fb565b91506138e18288613303565b91506138ec82613406565b91506138f88287613303565b915061390382613334565b915061390f8286613303565b915061391a82613406565b91506139268285613303565b9150613931826135f0565b915061393d8284613303565b915061394882613541565b91508190509998505050505050505050565b600061396582613636565b91506139718284613303565b915081905092915050565b600060208201905061399160008301846131c5565b92915050565b60006080820190506139ac60008301876131c5565b6139b960208301866131c5565b6139c66040830185613876565b81810360608301526139d88184613258565b905095945050505050565b60006060820190506139f860008301866131c5565b613a056020830185613876565b613a126040830184613876565b949350505050565b60006020820190508181036000830152613a3481846131d4565b905092915050565b6000602082019050613a516000830184613249565b92915050565b60006020820190508181036000830152613a7181846132ca565b905092915050565b60006080820190508181036000830152613a9381876132ca565b90508181036020830152613aa781866132ca565b9050613ab66040830185613876565b8181036060830152613ac881846132ca565b905095945050505050565b60006080820190508181036000830152613aed81876132ca565b90508181036020830152613b0181866132ca565b9050613b106040830185613876565b613b1d6060830184613876565b95945050505050565b600060a0820190508181036000830152613b4081886132ca565b90508181036020830152613b5481876132ca565b9050613b636040830186613876565b613b706060830185613876565b613b7d6080830184613876565b9695505050505050565b60006040820190508181036000830152613ba181856132ca565b9050613bb06020830184613876565b9392505050565b60006060820190508181036000830152613bd181866132ca565b9050613be06020830185613876565b613bed6040830184613876565b949350505050565b60006020820190508181036000830152613c0e8161337a565b9050919050565b60006020820190508181036000830152613c2e8161339d565b9050919050565b60006020820190508181036000830152613c4e816133c0565b9050919050565b60006020820190508181036000830152613c6e81613429565b9050919050565b60006020820190508181036000830152613c8e8161344c565b9050919050565b60006020820190508181036000830152613cae8161346f565b9050919050565b60006020820190508181036000830152613cce81613492565b9050919050565b60006020820190508181036000830152613cee816134b5565b9050919050565b60006020820190508181036000830152613d0e816134d8565b9050919050565b60006020820190508181036000830152613d2e8161351e565b9050919050565b60006020820190508181036000830152613d4e81613564565b9050919050565b60006020820190508181036000830152613d6e81613587565b9050919050565b60006020820190508181036000830152613d8e816135aa565b9050919050565b60006020820190508181036000830152613dae81613613565b9050919050565b60006020820190508181036000830152613dce81613659565b9050919050565b60006020820190508181036000830152613def818461367c565b905092915050565b60006020820190508181036000830152613e1181846137b0565b905092915050565b6000602082019050613e2e6000830184613876565b92915050565b600061010082019050613e4a600083018b613876565b8181036020830152613e5c818a6132ca565b90508181036040830152613e7081896132ca565b9050613e7f6060830188613876565b613e8c6080830187613876565b613e9960a0830186613876565b613ea660c0830185613876565b613eb360e0830184613876565b9998505050505050505050565b6000604082019050613ed56000830185613876565b613ee26020830184613876565b9392505050565b6000613ef3613f04565b9050613eff82826141c9565b919050565b6000604051905090565b600067ffffffffffffffff821115613f2957613f28614301565b5b613f3282614330565b9050602081019050919050565b6000819050602082019050919050565b600081519050919050565b600081519050919050565b600081519050919050565b6000602082019050919050565b600082825260208201905092915050565b600082825260208201905092915050565b600082825260208201905092915050565b600082825260208201905092915050565b600081905092915050565b6000613fd78261414b565b9150613fe28361414b565b9250827fffffffffffffffffffffffffffffffffffffffffffffffffffffffffffffffff0382111561401757614016614274565b5b828201905092915050565b600061402d8261414b565b91506140388361414b565b925082614048576140476142a3565b5b828204905092915050565b600061405e8261414b565b91506140698361414b565b9250817fffffffffffffffffffffffffffffffffffffffffffffffffffffffffffffffff04831182151516156140a2576140a1614274565b5b828202905092915050565b60006140b88261414b565b91506140c38361414b565b9250828210156140d6576140d5614274565b5b828203905092915050565b60006140ec8261412b565b9050919050565b60008115159050919050565b60007fffffffff0000000000000000000000000000000000000000000000000000000082169050919050565b600073ffffffffffffffffffffffffffffffffffffffff82169050919050565b6000819050919050565b82818337600083830152505050565b60005b83811015614182578082015181840152602081019050614167565b83811115614191576000848401525b50505050565b600060028204905060018216806141af57607f821691505b602082108114156141c3576141c26142d2565b5b50919050565b6141d282614330565b810181811067ffffffffffffffff821117156141f1576141f0614301565b5b80604052505050565b60006142058261414b565b91507fffffffffffffffffffffffffffffffffffffffffffffffffffffffffffffffff82141561423857614237614274565b5b600182019050919050565b600061424e8261414b565b91506142598361414b565b925082614269576142686142a3565b5b828206905092915050565b7f4e487b7100000000000000000000000000000000000000000000000000000000600052601160045260246000fd5b7f4e487b7100000000000000000000000000000000000000000000000000000000600052601260045260246000fd5b7f4e487b7100000000000000000000000000000000000000000000000000000000600052602260045260246000fd5b7f4e487b7100000000000000000000000000000000000000000000000000000000600052604160045260246000fd5b6000601f19601f8301169050919050565b7f7d2c207b202274726169745f74797065223a20224d616e61222c202276616c7560008201527f65223a2000000000000000000000000000000000000000000000000000000000602082015250565b7f202d2d204e465420233a20000000000000000000000000000000000000000000600082015250565b7f4552433732313a207472616e7366657220746f206e6f6e20455243373231526560008201527f63656976657220696d706c656d656e7465720000000000000000000000000000602082015250565b7f4572726f723a20626f7373206d757374206861766520485020746f206174746160008201527f636b20626f73732e000000000000000000000000000000000000000000000000602082015250565b7f4552433732313a20746f6b656e20616c7265616479206d696e74656400000000600082015250565b7f222c20226465736372697074696f6e223a20225468697320697320616e204e4660008201527f542074686174206c6574732070656f706c6520706c617920696e20746865206760208201527f616d65204d65746176657273652057697a6172647321222c2022696d6167652260408201527f3a2022697066733a2f2f00000000000000000000000000000000000000000000606082015250565b7f2c20226d61785f76616c7565223a000000000000000000000000000000000000600082015250565b7f4552433732313a207472616e7366657220746f20746865207a65726f2061646460008201527f7265737300000000000000000000000000000000000000000000000000000000602082015250565b7f4552433732313a20617070726f766520746f2063616c6c657200000000000000600082015250565b7f4552433732313a206f70657261746f7220717565727920666f72206e6f6e657860008201527f697374656e7420746f6b656e0000000000000000000000000000000000000000602082015250565b7f4552433732313a20617070726f76652063616c6c6572206973206e6f74206f7760008201527f6e6572206e6f7220617070726f76656420666f7220616c6c0000000000000000602082015250565b7f4552433732313a2062616c616e636520717565727920666f7220746865207a6560008201527f726f206164647265737300000000000000000000000000000000000000000000602082015250565b7f4552433732313a206f776e657220717565727920666f72206e6f6e657869737460008201527f656e7420746f6b656e0000000000000000000000000000000000000000000000602082015250565b7f222c202261747472696275746573223a205b7b202274726169745f747970652260008201527f3a20224865616c746820506f696e7473222c202276616c7565223a2000000000602082015250565b7f4572726f723a20636861726163746572206d757374206861766520485020746f60008201527f2061747461636b20626f73732e00000000000000000000000000000000000000602082015250565b7f7d205d7d00000000000000000000000000000000000000000000000000000000600082015250565b7f4552433732313a206d696e7420746f20746865207a65726f2061646472657373600082015250565b7f4552433732313a20617070726f76656420717565727920666f72206e6f6e657860008201527f697374656e7420746f6b656e0000000000000000000000000000000000000000602082015250565b7f4552433732313a207472616e73666572206f6620746f6b656e2074686174206960008201527f73206e6f74206f776e0000000000000000000000000000000000000000000000602082015250565b7f7b226e616d65223a202200000000000000000000000000000000000000000000600082015250565b7f7d2c207b202274726169745f74797065223a20225370656c6c2044616d61676560008201527f222c202276616c7565223a200000000000000000000000000000000000000000602082015250565b7f4552433732313a20617070726f76616c20746f2063757272656e74206f776e6560008201527f7200000000000000000000000000000000000000000000000000000000000000602082015250565b7f646174613a6170706c69636174696f6e2f6a736f6e3b6261736536342c000000600082015250565b7f4552433732313a207472616e736665722063616c6c6572206973206e6f74206f60008201527f776e6572206e6f7220617070726f766564000000000000000000000000000000602082015250565b6149ce816140e1565b81146149d957600080fd5b50565b6149e5816140f3565b81146149f057600080fd5b50565b6149fc816140ff565b8114614a0757600080fd5b50565b614a138161414b565b8114614a1e57600080fd5b5056fe506c617965722061747461636b656420626f73732e204e657720626f73732068703a2025734142434445464748494a4b4c4d4e4f505152535455565758595a6162636465666768696a6b6c6d6e6f707172737475767778797a303132333435363738392b2f426f73732061747461636b656420706c617965722e204e657720706c617965722068703a2025730a4d696e746564204e465420772f20746f6b656e496420257320616e6420636861726163746572496e6465782025730a506c6179657220772f206368617261637465722025732061626f757420746f2061747461636b2e2048617320257320485020616e64202573204144a264697066735822122014f2941caa44905bc3a28305f6727edf9b175a7616b0ffae7ece346c69be6d3464736f6c63430008040033446f6e6520696e697469616c697a696e6720257320772f2048502025732c20646d67202573446f6e6520696e697469616c697a696e6720626f737320257320772f2048502025732c20696d67202573",
  "linkReferences": {},
  "deployedLinkReferences": {}
}